{
  "_format": "hh-sol-artifact-1",
  "contractName": "NftMarketPlace",
  "sourceName": "contracts/NftMarketPlace.sol",
  "abi": [
    {
      "inputs": [],
      "stateMutability": "nonpayable",
      "type": "constructor"
    },
    {
      "inputs": [],
      "name": "NFTMarketplace__CallerIsNotContractOwner",
      "type": "error"
    },
    {
      "inputs": [],
      "name": "NFTMarketplace__OnlyItemOwner",
      "type": "error"
    },
    {
      "inputs": [],
      "name": "NFTMarketplace__PriceMustBeAtLeastOneWei",
      "type": "error"
    },
    {
      "inputs": [],
      "name": "NFTMarketplace__PriceMustEqualListingPrice",
      "type": "error"
    },
    {
      "inputs": [],
      "name": "NFTMarketplace__SubmitAskingPrice",
      "type": "error"
    },
    {
      "anonymous": false,
      "inputs": [
        {
          "indexed": true,
          "internalType": "address",
          "name": "owner",
          "type": "address"
        },
        {
          "indexed": true,
          "internalType": "address",
          "name": "approved",
          "type": "address"
        },
        {
          "indexed": true,
          "internalType": "uint256",
          "name": "tokenId",
          "type": "uint256"
        }
      ],
      "name": "Approval",
      "type": "event"
    },
    {
      "anonymous": false,
      "inputs": [
        {
          "indexed": true,
          "internalType": "address",
          "name": "owner",
          "type": "address"
        },
        {
          "indexed": true,
          "internalType": "address",
          "name": "operator",
          "type": "address"
        },
        {
          "indexed": false,
          "internalType": "bool",
          "name": "approved",
          "type": "bool"
        }
      ],
      "name": "ApprovalForAll",
      "type": "event"
    },
    {
      "anonymous": false,
      "inputs": [
        {
          "indexed": false,
          "internalType": "uint256",
          "name": "_fromTokenId",
          "type": "uint256"
        },
        {
          "indexed": false,
          "internalType": "uint256",
          "name": "_toTokenId",
          "type": "uint256"
        }
      ],
      "name": "BatchMetadataUpdate",
      "type": "event"
    },
    {
      "anonymous": false,
      "inputs": [
        {
          "indexed": true,
          "internalType": "uint256",
          "name": "tokenId",
          "type": "uint256"
        },
        {
          "indexed": false,
          "internalType": "address",
          "name": "seller",
          "type": "address"
        },
        {
          "indexed": false,
          "internalType": "address",
          "name": "owner",
          "type": "address"
        },
        {
          "indexed": false,
          "internalType": "uint256",
          "name": "price",
          "type": "uint256"
        },
        {
          "indexed": false,
          "internalType": "bool",
          "name": "sold",
          "type": "bool"
        }
      ],
      "name": "MarketItemCreated",
      "type": "event"
    },
    {
      "anonymous": false,
      "inputs": [
        {
          "indexed": true,
          "internalType": "uint256",
          "name": "tokenId",
          "type": "uint256"
        },
        {
          "indexed": false,
          "internalType": "address",
          "name": "owner",
          "type": "address"
        }
      ],
      "name": "MarketItemUnlisted",
      "type": "event"
    },
    {
      "anonymous": false,
      "inputs": [
        {
          "indexed": false,
          "internalType": "uint256",
          "name": "_tokenId",
          "type": "uint256"
        }
      ],
      "name": "MetadataUpdate",
      "type": "event"
    },
    {
      "anonymous": false,
      "inputs": [
        {
          "indexed": true,
          "internalType": "address",
          "name": "from",
          "type": "address"
        },
        {
          "indexed": true,
          "internalType": "address",
          "name": "to",
          "type": "address"
        },
        {
          "indexed": true,
          "internalType": "uint256",
          "name": "tokenId",
          "type": "uint256"
        }
      ],
      "name": "Transfer",
      "type": "event"
    },
    {
      "inputs": [
        {
          "internalType": "address",
          "name": "to",
          "type": "address"
        },
        {
          "internalType": "uint256",
          "name": "tokenId",
          "type": "uint256"
        }
      ],
      "name": "approve",
      "outputs": [],
      "stateMutability": "nonpayable",
      "type": "function"
    },
    {
      "inputs": [
        {
          "internalType": "address",
          "name": "owner",
          "type": "address"
        }
      ],
      "name": "balanceOf",
      "outputs": [
        {
          "internalType": "uint256",
          "name": "",
          "type": "uint256"
        }
      ],
      "stateMutability": "view",
      "type": "function"
    },
    {
      "inputs": [
        {
          "internalType": "uint256",
          "name": "tokenId",
          "type": "uint256"
        }
      ],
      "name": "createMarketSale",
      "outputs": [],
      "stateMutability": "payable",
      "type": "function"
    },
    {
      "inputs": [
        {
          "internalType": "string",
          "name": "tokenURI",
          "type": "string"
        },
        {
          "internalType": "uint256",
          "name": "price",
          "type": "uint256"
        }
      ],
      "name": "createToken",
      "outputs": [
        {
          "internalType": "uint256",
          "name": "",
          "type": "uint256"
        }
      ],
      "stateMutability": "payable",
      "type": "function"
    },
    {
      "inputs": [],
      "name": "fetchItemsListed",
      "outputs": [
        {
          "components": [
            {
              "internalType": "uint256",
              "name": "tokenId",
              "type": "uint256"
            },
            {
              "internalType": "address payable",
              "name": "seller",
              "type": "address"
            },
            {
              "internalType": "address payable",
              "name": "owner",
              "type": "address"
            },
            {
              "internalType": "uint256",
              "name": "price",
              "type": "uint256"
            },
            {
              "internalType": "bool",
              "name": "sold",
              "type": "bool"
            }
          ],
          "internalType": "struct NftMarketPlace.MarketItem[]",
          "name": "",
          "type": "tuple[]"
        }
      ],
      "stateMutability": "view",
      "type": "function"
    },
    {
      "inputs": [],
      "name": "fetchMarketItems",
      "outputs": [
        {
          "components": [
            {
              "internalType": "uint256",
              "name": "tokenId",
              "type": "uint256"
            },
            {
              "internalType": "address payable",
              "name": "seller",
              "type": "address"
            },
            {
              "internalType": "address payable",
              "name": "owner",
              "type": "address"
            },
            {
              "internalType": "uint256",
              "name": "price",
              "type": "uint256"
            },
            {
              "internalType": "bool",
              "name": "sold",
              "type": "bool"
            }
          ],
          "internalType": "struct NftMarketPlace.MarketItem[]",
          "name": "",
          "type": "tuple[]"
        }
      ],
      "stateMutability": "view",
      "type": "function"
    },
    {
      "inputs": [],
      "name": "fetchMyNFTs",
      "outputs": [
        {
          "components": [
            {
              "internalType": "uint256",
              "name": "tokenId",
              "type": "uint256"
            },
            {
              "internalType": "address payable",
              "name": "seller",
              "type": "address"
            },
            {
              "internalType": "address payable",
              "name": "owner",
              "type": "address"
            },
            {
              "internalType": "uint256",
              "name": "price",
              "type": "uint256"
            },
            {
              "internalType": "bool",
              "name": "sold",
              "type": "bool"
            }
          ],
          "internalType": "struct NftMarketPlace.MarketItem[]",
          "name": "",
          "type": "tuple[]"
        }
      ],
      "stateMutability": "view",
      "type": "function"
    },
    {
      "inputs": [
        {
          "internalType": "uint256",
          "name": "tokenId",
          "type": "uint256"
        }
      ],
      "name": "getApproved",
      "outputs": [
        {
          "internalType": "address",
          "name": "",
          "type": "address"
        }
      ],
      "stateMutability": "view",
      "type": "function"
    },
    {
      "inputs": [],
      "name": "getListingPrice",
      "outputs": [
        {
          "internalType": "uint256",
          "name": "",
          "type": "uint256"
        }
      ],
      "stateMutability": "view",
      "type": "function"
    },
    {
      "inputs": [
        {
          "internalType": "address",
          "name": "owner",
          "type": "address"
        },
        {
          "internalType": "address",
          "name": "operator",
          "type": "address"
        }
      ],
      "name": "isApprovedForAll",
      "outputs": [
        {
          "internalType": "bool",
          "name": "",
          "type": "bool"
        }
      ],
      "stateMutability": "view",
      "type": "function"
    },
    {
      "inputs": [],
      "name": "name",
      "outputs": [
        {
          "internalType": "string",
          "name": "",
          "type": "string"
        }
      ],
      "stateMutability": "view",
      "type": "function"
    },
    {
      "inputs": [
        {
          "internalType": "uint256",
          "name": "tokenId",
          "type": "uint256"
        }
      ],
      "name": "ownerOf",
      "outputs": [
        {
          "internalType": "address",
          "name": "",
          "type": "address"
        }
      ],
      "stateMutability": "view",
      "type": "function"
    },
    {
      "inputs": [
        {
          "internalType": "uint256",
          "name": "tokenId",
          "type": "uint256"
        },
        {
          "internalType": "uint256",
          "name": "price",
          "type": "uint256"
        }
      ],
      "name": "resellToken",
      "outputs": [],
      "stateMutability": "payable",
      "type": "function"
    },
    {
      "inputs": [
        {
          "internalType": "address",
          "name": "from",
          "type": "address"
        },
        {
          "internalType": "address",
          "name": "to",
          "type": "address"
        },
        {
          "internalType": "uint256",
          "name": "tokenId",
          "type": "uint256"
        }
      ],
      "name": "safeTransferFrom",
      "outputs": [],
      "stateMutability": "nonpayable",
      "type": "function"
    },
    {
      "inputs": [
        {
          "internalType": "address",
          "name": "from",
          "type": "address"
        },
        {
          "internalType": "address",
          "name": "to",
          "type": "address"
        },
        {
          "internalType": "uint256",
          "name": "tokenId",
          "type": "uint256"
        },
        {
          "internalType": "bytes",
          "name": "data",
          "type": "bytes"
        }
      ],
      "name": "safeTransferFrom",
      "outputs": [],
      "stateMutability": "nonpayable",
      "type": "function"
    },
    {
      "inputs": [
        {
          "internalType": "address",
          "name": "operator",
          "type": "address"
        },
        {
          "internalType": "bool",
          "name": "approved",
          "type": "bool"
        }
      ],
      "name": "setApprovalForAll",
      "outputs": [],
      "stateMutability": "nonpayable",
      "type": "function"
    },
    {
      "inputs": [
        {
          "internalType": "bytes4",
          "name": "interfaceId",
          "type": "bytes4"
        }
      ],
      "name": "supportsInterface",
      "outputs": [
        {
          "internalType": "bool",
          "name": "",
          "type": "bool"
        }
      ],
      "stateMutability": "view",
      "type": "function"
    },
    {
      "inputs": [],
      "name": "symbol",
      "outputs": [
        {
          "internalType": "string",
          "name": "",
          "type": "string"
        }
      ],
      "stateMutability": "view",
      "type": "function"
    },
    {
      "inputs": [
        {
          "internalType": "uint256",
          "name": "tokenId",
          "type": "uint256"
        }
      ],
      "name": "tokenURI",
      "outputs": [
        {
          "internalType": "string",
          "name": "",
          "type": "string"
        }
      ],
      "stateMutability": "view",
      "type": "function"
    },
    {
      "inputs": [
        {
          "internalType": "address",
          "name": "from",
          "type": "address"
        },
        {
          "internalType": "address",
          "name": "to",
          "type": "address"
        },
        {
          "internalType": "uint256",
          "name": "tokenId",
          "type": "uint256"
        }
      ],
      "name": "transferFrom",
      "outputs": [],
      "stateMutability": "nonpayable",
      "type": "function"
    },
    {
      "inputs": [
        {
          "internalType": "uint256",
          "name": "tokenId",
          "type": "uint256"
        }
      ],
      "name": "unlistToken",
      "outputs": [],
      "stateMutability": "nonpayable",
      "type": "function"
    },
    {
      "inputs": [
        {
          "internalType": "uint256",
          "name": "_listingPrice",
          "type": "uint256"
        }
      ],
      "name": "updateListingPrice",
      "outputs": [],
      "stateMutability": "payable",
      "type": "function"
    }
  ],
  "bytecode": "0x60806040526658d15e176280006009553480156200001c57600080fd5b506040518060400160405280601381526020017f4e4654204d657461766572736520546f6b656e000000000000000000000000008152506040518060400160405280600581526020017f4d594e465400000000000000000000000000000000000000000000000000000081525081600090816200009a919062000370565b508060019081620000ac919062000370565b50505033600a60006101000a81548173ffffffffffffffffffffffffffffffffffffffff021916908373ffffffffffffffffffffffffffffffffffffffff16021790555062000457565b600081519050919050565b7f4e487b7100000000000000000000000000000000000000000000000000000000600052604160045260246000fd5b7f4e487b7100000000000000000000000000000000000000000000000000000000600052602260045260246000fd5b600060028204905060018216806200017857607f821691505b6020821081036200018e576200018d62000130565b5b50919050565b60008190508160005260206000209050919050565b60006020601f8301049050919050565b600082821b905092915050565b600060088302620001f87fffffffffffffffffffffffffffffffffffffffffffffffffffffffffffffffff82620001b9565b620002048683620001b9565b95508019841693508086168417925050509392505050565b6000819050919050565b6000819050919050565b6000620002516200024b62000245846200021c565b62000226565b6200021c565b9050919050565b6000819050919050565b6200026d8362000230565b620002856200027c8262000258565b848454620001c6565b825550505050565b600090565b6200029c6200028d565b620002a981848462000262565b505050565b5b81811015620002d157620002c560008262000292565b600181019050620002af565b5050565b601f8211156200032057620002ea8162000194565b620002f584620001a9565b8101602085101562000305578190505b6200031d6200031485620001a9565b830182620002ae565b50505b505050565b600082821c905092915050565b6000620003456000198460080262000325565b1980831691505092915050565b600062000360838362000332565b9150826002028217905092915050565b6200037b82620000f6565b67ffffffffffffffff81111562000397576200039662000101565b5b620003a382546200015f565b620003b0828285620002d5565b600060209050601f831160018114620003e85760008415620003d3578287015190505b620003df858262000352565b8655506200044f565b601f198416620003f88662000194565b60005b828110156200042257848901518255600182019150602085019450602081019050620003fb565b868310156200044257848901516200043e601f89168262000332565b8355505b6001600288020188555050505b505050505050565b6141cd80620004676000396000f3fe6080604052600436106101355760003560e01c806370a08231116100ab578063ae677aa31161006f578063ae677aa31461042d578063b88d4fde14610449578063be9af53614610472578063c87b56dd1461048e578063e219fc75146104cb578063e985e9c5146104e757610135565b806370a082311461034357806372b3b6201461038057806395d89b41146103b0578063a22cb465146103db578063ad3a358c1461040457610135565b806312e85585116100fd57806312e8558514610233578063202e37401461025e57806323b872dd1461028957806342842e0e146102b257806345f8fa80146102db5780636352211e1461030657610135565b806301ffc9a71461013a57806306fdde0314610177578063081812fc146101a2578063095ea7b3146101df5780630f08efe014610208575b600080fd5b34801561014657600080fd5b50610161600480360381019061015c9190612d8d565b610524565b60405161016e9190612dd5565b60405180910390f35b34801561018357600080fd5b5061018c610585565b6040516101999190612e80565b60405180910390f35b3480156101ae57600080fd5b506101c960048036038101906101c49190612ed8565b610617565b6040516101d69190612f46565b60405180910390f35b3480156101eb57600080fd5b5061020660048036038101906102019190612f8d565b61065d565b005b34801561021457600080fd5b5061021d610774565b60405161022a9190613123565b60405180910390f35b34801561023f57600080fd5b506102486109d6565b6040516102559190613154565b60405180910390f35b34801561026a57600080fd5b506102736109e0565b6040516102809190613123565b60405180910390f35b34801561029557600080fd5b506102b060048036038101906102ab919061316f565b610cc0565b005b3480156102be57600080fd5b506102d960048036038101906102d4919061316f565b610d20565b005b3480156102e757600080fd5b506102f0610d40565b6040516102fd9190613123565b60405180910390f35b34801561031257600080fd5b5061032d60048036038101906103289190612ed8565b611020565b60405161033a9190612f46565b60405180910390f35b34801561034f57600080fd5b5061036a600480360381019061036591906131c2565b6110a6565b6040516103779190613154565b60405180910390f35b61039a60048036038101906103959190613324565b61115d565b6040516103a79190613154565b60405180910390f35b3480156103bc57600080fd5b506103c561119f565b6040516103d29190612e80565b60405180910390f35b3480156103e757600080fd5b5061040260048036038101906103fd91906133ac565b611231565b005b34801561041057600080fd5b5061042b60048036038101906104269190612ed8565b611247565b005b61044760048036038101906104429190612ed8565b611465565b005b34801561045557600080fd5b50610470600480360381019061046b919061348d565b6114f6565b005b61048c60048036038101906104879190612ed8565b611558565b005b34801561049a57600080fd5b506104b560048036038101906104b09190612ed8565b611787565b6040516104c29190612e80565b60405180910390f35b6104e560048036038101906104e09190613510565b611899565b005b3480156104f357600080fd5b5061050e60048036038101906105099190613550565b611a7c565b60405161051b9190612dd5565b60405180910390f35b6000634906490660e01b7bffffffffffffffffffffffffffffffffffffffffffffffffffffffff1916827bffffffffffffffffffffffffffffffffffffffffffffffffffffffff1916148061057e575061057d82611b10565b5b9050919050565b606060008054610594906135bf565b80601f01602080910402602001604051908101604052809291908181526020018280546105c0906135bf565b801561060d5780601f106105e25761010080835404028352916020019161060d565b820191906000526020600020905b8154815290600101906020018083116105f057829003601f168201915b5050505050905090565b600061062282611bf2565b6004600083815260200190815260200160002060009054906101000a900473ffffffffffffffffffffffffffffffffffffffff169050919050565b600061066882611020565b90508073ffffffffffffffffffffffffffffffffffffffff168373ffffffffffffffffffffffffffffffffffffffff16036106d8576040517f08c379a00000000000000000000000000000000000000000000000000000000081526004016106cf90613662565b60405180910390fd5b8073ffffffffffffffffffffffffffffffffffffffff166106f7611c3d565b73ffffffffffffffffffffffffffffffffffffffff161480610726575061072581610720611c3d565b611a7c565b5b610765576040517f08c379a000000000000000000000000000000000000000000000000000000000815260040161075c906136f4565b60405180910390fd5b61076f8383611c45565b505050565b606060006107826007611cfe565b905060006107906008611cfe565b61079a6007611cfe565b6107a49190613743565b90506000808267ffffffffffffffff8111156107c3576107c26131f9565b5b6040519080825280602002602001820160405280156107fc57816020015b6107e9612cc4565b8152602001906001900390816107e15790505b50905060005b848110156109cb573073ffffffffffffffffffffffffffffffffffffffff16600b60006001846108329190613777565b815260200190815260200160002060020160009054906101000a900473ffffffffffffffffffffffffffffffffffffffff1673ffffffffffffffffffffffffffffffffffffffff16036109be57600060018261088e9190613777565b90506000600b60008381526020019081526020016000209050806040518060a0016040529081600082015481526020016001820160009054906101000a900473ffffffffffffffffffffffffffffffffffffffff1673ffffffffffffffffffffffffffffffffffffffff1673ffffffffffffffffffffffffffffffffffffffff1681526020016002820160009054906101000a900473ffffffffffffffffffffffffffffffffffffffff1673ffffffffffffffffffffffffffffffffffffffff1673ffffffffffffffffffffffffffffffffffffffff168152602001600382015481526020016004820160009054906101000a900460ff1615151515815250508486815181106109a1576109a06137ab565b5b60200260200101819052506001856109b99190613777565b945050505b8080600101915050610802565b508094505050505090565b6000600954905090565b606060006109ee6007611cfe565b905060008060005b83811015610a90573373ffffffffffffffffffffffffffffffffffffffff16600b6000600184610a269190613777565b815260200190815260200160002060020160009054906101000a900473ffffffffffffffffffffffffffffffffffffffff1673ffffffffffffffffffffffffffffffffffffffff1603610a8357600183610a809190613777565b92505b80806001019150506109f6565b5060008267ffffffffffffffff811115610aad57610aac6131f9565b5b604051908082528060200260200182016040528015610ae657816020015b610ad3612cc4565b815260200190600190039081610acb5790505b50905060005b84811015610cb5573373ffffffffffffffffffffffffffffffffffffffff16600b6000600184610b1c9190613777565b815260200190815260200160002060020160009054906101000a900473ffffffffffffffffffffffffffffffffffffffff1673ffffffffffffffffffffffffffffffffffffffff1603610ca8576000600182610b789190613777565b90506000600b60008381526020019081526020016000209050806040518060a0016040529081600082015481526020016001820160009054906101000a900473ffffffffffffffffffffffffffffffffffffffff1673ffffffffffffffffffffffffffffffffffffffff1673ffffffffffffffffffffffffffffffffffffffff1681526020016002820160009054906101000a900473ffffffffffffffffffffffffffffffffffffffff1673ffffffffffffffffffffffffffffffffffffffff1673ffffffffffffffffffffffffffffffffffffffff168152602001600382015481526020016004820160009054906101000a900460ff161515151581525050848681518110610c8b57610c8a6137ab565b5b6020026020010181905250600185610ca39190613777565b945050505b8080600101915050610aec565b508094505050505090565b610cd1610ccb611c3d565b82611d0c565b610d10576040517f08c379a0000000000000000000000000000000000000000000000000000000008152600401610d079061384c565b60405180910390fd5b610d1b838383611da1565b505050565b610d3b838383604051806020016040528060008152506114f6565b505050565b60606000610d4e6007611cfe565b905060008060005b83811015610df0573373ffffffffffffffffffffffffffffffffffffffff16600b6000600184610d869190613777565b815260200190815260200160002060010160009054906101000a900473ffffffffffffffffffffffffffffffffffffffff1673ffffffffffffffffffffffffffffffffffffffff1603610de357600183610de09190613777565b92505b8080600101915050610d56565b5060008267ffffffffffffffff811115610e0d57610e0c6131f9565b5b604051908082528060200260200182016040528015610e4657816020015b610e33612cc4565b815260200190600190039081610e2b5790505b50905060005b84811015611015573373ffffffffffffffffffffffffffffffffffffffff16600b6000600184610e7c9190613777565b815260200190815260200160002060010160009054906101000a900473ffffffffffffffffffffffffffffffffffffffff1673ffffffffffffffffffffffffffffffffffffffff1603611008576000600182610ed89190613777565b90506000600b60008381526020019081526020016000209050806040518060a0016040529081600082015481526020016001820160009054906101000a900473ffffffffffffffffffffffffffffffffffffffff1673ffffffffffffffffffffffffffffffffffffffff1673ffffffffffffffffffffffffffffffffffffffff1681526020016002820160009054906101000a900473ffffffffffffffffffffffffffffffffffffffff1673ffffffffffffffffffffffffffffffffffffffff1673ffffffffffffffffffffffffffffffffffffffff168152602001600382015481526020016004820160009054906101000a900460ff161515151581525050848681518110610feb57610fea6137ab565b5b60200260200101819052506001856110039190613777565b945050505b8080600101915050610e4c565b508094505050505090565b60008061102c8361209a565b9050600073ffffffffffffffffffffffffffffffffffffffff168173ffffffffffffffffffffffffffffffffffffffff160361109d576040517f08c379a0000000000000000000000000000000000000000000000000000000008152600401611094906138b8565b60405180910390fd5b80915050919050565b60008073ffffffffffffffffffffffffffffffffffffffff168273ffffffffffffffffffffffffffffffffffffffff1603611116576040517f08c379a000000000000000000000000000000000000000000000000000000000815260040161110d9061394a565b60405180910390fd5b600360008373ffffffffffffffffffffffffffffffffffffffff1673ffffffffffffffffffffffffffffffffffffffff168152602001908152602001600020549050919050565b600061116960076120d7565b60006111756007611cfe565b905061118133826120ed565b61118b818561230a565b61119581846123ae565b8091505092915050565b6060600180546111ae906135bf565b80601f01602080910402602001604051908101604052809291908181526020018280546111da906135bf565b80156112275780601f106111fc57610100808354040283529160200191611227565b820191906000526020600020905b81548152906001019060200180831161120a57829003601f168201915b5050505050905090565b61124361123c611c3d565b838361259f565b5050565b6000600b600083815260200190815260200160002090503073ffffffffffffffffffffffffffffffffffffffff168160020160009054906101000a900473ffffffffffffffffffffffffffffffffffffffff1673ffffffffffffffffffffffffffffffffffffffff16146112e7576040517f5b77258700000000000000000000000000000000000000000000000000000000815260040160405180910390fd5b3373ffffffffffffffffffffffffffffffffffffffff168160010160009054906101000a900473ffffffffffffffffffffffffffffffffffffffff1673ffffffffffffffffffffffffffffffffffffffff1614611370576040517f5b77258700000000000000000000000000000000000000000000000000000000815260040160405180910390fd5b338160020160006101000a81548173ffffffffffffffffffffffffffffffffffffffff021916908373ffffffffffffffffffffffffffffffffffffffff16021790555060008160010160006101000a81548173ffffffffffffffffffffffffffffffffffffffff021916908373ffffffffffffffffffffffffffffffffffffffff16021790555060018160040160006101000a81548160ff02191690831515021790555061141e60086120d7565b611429303384611da1565b817f8b3868bb97ca853c562de4665d26b9437b797c1763cf2cf4341ef089cdffc70a336040516114599190612f46565b60405180910390a25050565b600a60009054906101000a900473ffffffffffffffffffffffffffffffffffffffff1673ffffffffffffffffffffffffffffffffffffffff163373ffffffffffffffffffffffffffffffffffffffff16146114ec576040517f81c5ff5b00000000000000000000000000000000000000000000000000000000815260040160405180910390fd5b8060098190555050565b611507611501611c3d565b83611d0c565b611546576040517f08c379a000000000000000000000000000000000000000000000000000000000815260040161153d9061384c565b60405180910390fd5b6115528484848461270b565b50505050565b6000600b60008381526020019081526020016000206003015490508034146115ac576040517fb44a10b200000000000000000000000000000000000000000000000000000000815260040160405180910390fd5b33600b600084815260200190815260200160002060020160006101000a81548173ffffffffffffffffffffffffffffffffffffffff021916908373ffffffffffffffffffffffffffffffffffffffff1602179055506001600b600084815260200190815260200160002060040160006101000a81548160ff0219169083151502179055506000600b600084815260200190815260200160002060010160006101000a81548173ffffffffffffffffffffffffffffffffffffffff021916908373ffffffffffffffffffffffffffffffffffffffff16021790555061169060086120d7565b61169b303384611da1565b600a60009054906101000a900473ffffffffffffffffffffffffffffffffffffffff1673ffffffffffffffffffffffffffffffffffffffff166108fc6009549081150290604051600060405180830381858888f19350505050158015611705573d6000803e3d6000fd5b50600b600083815260200190815260200160002060010160009054906101000a900473ffffffffffffffffffffffffffffffffffffffff1673ffffffffffffffffffffffffffffffffffffffff166108fc349081150290604051600060405180830381858888f19350505050158015611782573d6000803e3d6000fd5b505050565b606061179282611bf2565b60006006600084815260200190815260200160002080546117b2906135bf565b80601f01602080910402602001604051908101604052809291908181526020018280546117de906135bf565b801561182b5780601f106118005761010080835404028352916020019161182b565b820191906000526020600020905b81548152906001019060200180831161180e57829003601f168201915b50505050509050600061183c612767565b90506000815103611851578192505050611894565b60008251111561188657808260405160200161186e9291906139a6565b60405160208183030381529060405292505050611894565b61188f8461277e565b925050505b919050565b3373ffffffffffffffffffffffffffffffffffffffff16600b600084815260200190815260200160002060020160009054906101000a900473ffffffffffffffffffffffffffffffffffffffff1673ffffffffffffffffffffffffffffffffffffffff1614611934576040517f5b77258700000000000000000000000000000000000000000000000000000000815260040160405180910390fd5b600954341461196f576040517f411ba35900000000000000000000000000000000000000000000000000000000815260040160405180910390fd5b6000600b600084815260200190815260200160002060040160006101000a81548160ff02191690831515021790555080600b60008481526020019081526020016000206003018190555033600b600084815260200190815260200160002060010160006101000a81548173ffffffffffffffffffffffffffffffffffffffff021916908373ffffffffffffffffffffffffffffffffffffffff16021790555030600b600084815260200190815260200160002060020160006101000a81548173ffffffffffffffffffffffffffffffffffffffff021916908373ffffffffffffffffffffffffffffffffffffffff160217905550611a6d60086127e6565b611a78333084611da1565b5050565b6000600560008473ffffffffffffffffffffffffffffffffffffffff1673ffffffffffffffffffffffffffffffffffffffff16815260200190815260200160002060008373ffffffffffffffffffffffffffffffffffffffff1673ffffffffffffffffffffffffffffffffffffffff16815260200190815260200160002060009054906101000a900460ff16905092915050565b60007f80ac58cd000000000000000000000000000000000000000000000000000000007bffffffffffffffffffffffffffffffffffffffffffffffffffffffff1916827bffffffffffffffffffffffffffffffffffffffffffffffffffffffff19161480611bdb57507f5b5e139f000000000000000000000000000000000000000000000000000000007bffffffffffffffffffffffffffffffffffffffffffffffffffffffff1916827bffffffffffffffffffffffffffffffffffffffffffffffffffffffff1916145b80611beb5750611bea82612842565b5b9050919050565b611bfb816128ac565b611c3a576040517f08c379a0000000000000000000000000000000000000000000000000000000008152600401611c31906138b8565b60405180910390fd5b50565b600033905090565b816004600083815260200190815260200160002060006101000a81548173ffffffffffffffffffffffffffffffffffffffff021916908373ffffffffffffffffffffffffffffffffffffffff160217905550808273ffffffffffffffffffffffffffffffffffffffff16611cb883611020565b73ffffffffffffffffffffffffffffffffffffffff167f8c5be1e5ebec7d5bd14f71427d1e84f3dd0314c0f7b2291e5b200ac8c7c3b92560405160405180910390a45050565b600081600001549050919050565b600080611d1883611020565b90508073ffffffffffffffffffffffffffffffffffffffff168473ffffffffffffffffffffffffffffffffffffffff161480611d5a5750611d598185611a7c565b5b80611d9857508373ffffffffffffffffffffffffffffffffffffffff16611d8084610617565b73ffffffffffffffffffffffffffffffffffffffff16145b91505092915050565b8273ffffffffffffffffffffffffffffffffffffffff16611dc182611020565b73ffffffffffffffffffffffffffffffffffffffff1614611e17576040517f08c379a0000000000000000000000000000000000000000000000000000000008152600401611e0e90613a3c565b60405180910390fd5b600073ffffffffffffffffffffffffffffffffffffffff168273ffffffffffffffffffffffffffffffffffffffff1603611e86576040517f08c379a0000000000000000000000000000000000000000000000000000000008152600401611e7d90613ace565b60405180910390fd5b611e9383838360016128ed565b8273ffffffffffffffffffffffffffffffffffffffff16611eb382611020565b73ffffffffffffffffffffffffffffffffffffffff1614611f09576040517f08c379a0000000000000000000000000000000000000000000000000000000008152600401611f0090613a3c565b60405180910390fd5b6004600082815260200190815260200160002060006101000a81549073ffffffffffffffffffffffffffffffffffffffff02191690556001600360008573ffffffffffffffffffffffffffffffffffffffff1673ffffffffffffffffffffffffffffffffffffffff168152602001908152602001600020600082825403925050819055506001600360008473ffffffffffffffffffffffffffffffffffffffff1673ffffffffffffffffffffffffffffffffffffffff16815260200190815260200160002060008282540192505081905550816002600083815260200190815260200160002060006101000a81548173ffffffffffffffffffffffffffffffffffffffff021916908373ffffffffffffffffffffffffffffffffffffffff160217905550808273ffffffffffffffffffffffffffffffffffffffff168473ffffffffffffffffffffffffffffffffffffffff167fddf252ad1be2c89b69c2b068fc378daa952ba7f163c4a11628f55a4df523b3ef60405160405180910390a461209583838360016128f3565b505050565b60006002600083815260200190815260200160002060009054906101000a900473ffffffffffffffffffffffffffffffffffffffff169050919050565b6001816000016000828254019250508190555050565b600073ffffffffffffffffffffffffffffffffffffffff168273ffffffffffffffffffffffffffffffffffffffff160361215c576040517f08c379a000000000000000000000000000000000000000000000000000000000815260040161215390613b3a565b60405180910390fd5b612165816128ac565b156121a5576040517f08c379a000000000000000000000000000000000000000000000000000000000815260040161219c90613ba6565b60405180910390fd5b6121b36000838360016128ed565b6121bc816128ac565b156121fc576040517f08c379a00000000000000000000000000000000000000000000000000000000081526004016121f390613ba6565b60405180910390fd5b6001600360008473ffffffffffffffffffffffffffffffffffffffff1673ffffffffffffffffffffffffffffffffffffffff16815260200190815260200160002060008282540192505081905550816002600083815260200190815260200160002060006101000a81548173ffffffffffffffffffffffffffffffffffffffff021916908373ffffffffffffffffffffffffffffffffffffffff160217905550808273ffffffffffffffffffffffffffffffffffffffff16600073ffffffffffffffffffffffffffffffffffffffff167fddf252ad1be2c89b69c2b068fc378daa952ba7f163c4a11628f55a4df523b3ef60405160405180910390a46123066000838360016128f3565b5050565b612313826128ac565b612352576040517f08c379a000000000000000000000000000000000000000000000000000000000815260040161234990613c38565b60405180910390fd5b806006600084815260200190815260200160002090816123729190613e04565b507ff8e1a15aba9398e019f0b49df1a4fde98ee17ae345cb5f6b5e2c27f5033e8ce7826040516123a29190613154565b60405180910390a15050565b600081116123e8576040517ff4d38be400000000000000000000000000000000000000000000000000000000815260040160405180910390fd5b6009543414612423576040517f411ba35900000000000000000000000000000000000000000000000000000000815260040160405180910390fd5b6040518060a001604052808381526020013373ffffffffffffffffffffffffffffffffffffffff1681526020013073ffffffffffffffffffffffffffffffffffffffff16815260200182815260200160001515815250600b60008481526020019081526020016000206000820151816000015560208201518160010160006101000a81548173ffffffffffffffffffffffffffffffffffffffff021916908373ffffffffffffffffffffffffffffffffffffffff16021790555060408201518160020160006101000a81548173ffffffffffffffffffffffffffffffffffffffff021916908373ffffffffffffffffffffffffffffffffffffffff1602179055506060820151816003015560808201518160040160006101000a81548160ff02191690831515021790555090505061255c333084611da1565b817fb640004f1d14576d0c209e240cad0410e0d8c0c33a09375861fbadae2588a98d33308460006040516125939493929190613ed6565b60405180910390a25050565b8173ffffffffffffffffffffffffffffffffffffffff168373ffffffffffffffffffffffffffffffffffffffff160361260d576040517f08c379a000000000000000000000000000000000000000000000000000000000815260040161260490613f67565b60405180910390fd5b80600560008573ffffffffffffffffffffffffffffffffffffffff1673ffffffffffffffffffffffffffffffffffffffff16815260200190815260200160002060008473ffffffffffffffffffffffffffffffffffffffff1673ffffffffffffffffffffffffffffffffffffffff16815260200190815260200160002060006101000a81548160ff0219169083151502179055508173ffffffffffffffffffffffffffffffffffffffff168373ffffffffffffffffffffffffffffffffffffffff167f17307eab39ab6107e8899845ad3d59bd9653f200f220920489ca2b5937696c31836040516126fe9190612dd5565b60405180910390a3505050565b612716848484611da1565b612722848484846128f9565b612761576040517f08c379a000000000000000000000000000000000000000000000000000000000815260040161275890613ff9565b60405180910390fd5b50505050565b606060405180602001604052806000815250905090565b606061278982611bf2565b6000612793612767565b905060008151116127b357604051806020016040528060008152506127de565b806127bd84612a80565b6040516020016127ce9291906139a6565b6040516020818303038152906040525b915050919050565b60008160000154905060008111612832576040517f08c379a000000000000000000000000000000000000000000000000000000000815260040161282990614065565b60405180910390fd5b6001810382600001819055505050565b60007f01ffc9a7000000000000000000000000000000000000000000000000000000007bffffffffffffffffffffffffffffffffffffffffffffffffffffffff1916827bffffffffffffffffffffffffffffffffffffffffffffffffffffffff1916149050919050565b60008073ffffffffffffffffffffffffffffffffffffffff166128ce8361209a565b73ffffffffffffffffffffffffffffffffffffffff1614159050919050565b50505050565b50505050565b600061291a8473ffffffffffffffffffffffffffffffffffffffff16612b4e565b15612a73578373ffffffffffffffffffffffffffffffffffffffff1663150b7a02612943611c3d565b8786866040518563ffffffff1660e01b815260040161296594939291906140da565b6020604051808303816000875af19250505080156129a157506040513d601f19601f8201168201806040525081019061299e919061413b565b60015b612a23573d80600081146129d1576040519150601f19603f3d011682016040523d82523d6000602084013e6129d6565b606091505b506000815103612a1b576040517f08c379a0000000000000000000000000000000000000000000000000000000008152600401612a1290613ff9565b60405180910390fd5b805181602001fd5b63150b7a0260e01b7bffffffffffffffffffffffffffffffffffffffffffffffffffffffff1916817bffffffffffffffffffffffffffffffffffffffffffffffffffffffff191614915050612a78565b600190505b949350505050565b606060006001612a8f84612b71565b01905060008167ffffffffffffffff811115612aae57612aad6131f9565b5b6040519080825280601f01601f191660200182016040528015612ae05781602001600182028036833780820191505090505b509050600082602001820190505b600115612b43578080600190039150507f3031323334353637383961626364656600000000000000000000000000000000600a86061a8153600a8581612b3757612b36614168565b5b04945060008503612aee575b819350505050919050565b6000808273ffffffffffffffffffffffffffffffffffffffff163b119050919050565b600080600090507a184f03e93ff9f4daa797ed6e38ed64bf6a1f0100000000000000008310612bcf577a184f03e93ff9f4daa797ed6e38ed64bf6a1f0100000000000000008381612bc557612bc4614168565b5b0492506040810190505b6d04ee2d6d415b85acef81000000008310612c0c576d04ee2d6d415b85acef81000000008381612c0257612c01614168565b5b0492506020810190505b662386f26fc100008310612c3b57662386f26fc100008381612c3157612c30614168565b5b0492506010810190505b6305f5e1008310612c64576305f5e1008381612c5a57612c59614168565b5b0492506008810190505b6127108310612c89576127108381612c7f57612c7e614168565b5b0492506004810190505b60648310612cac5760648381612ca257612ca1614168565b5b0492506002810190505b600a8310612cbb576001810190505b80915050919050565b6040518060a0016040528060008152602001600073ffffffffffffffffffffffffffffffffffffffff168152602001600073ffffffffffffffffffffffffffffffffffffffff168152602001600081526020016000151581525090565b6000604051905090565b600080fd5b600080fd5b60007fffffffff0000000000000000000000000000000000000000000000000000000082169050919050565b612d6a81612d35565b8114612d7557600080fd5b50565b600081359050612d8781612d61565b92915050565b600060208284031215612da357612da2612d2b565b5b6000612db184828501612d78565b91505092915050565b60008115159050919050565b612dcf81612dba565b82525050565b6000602082019050612dea6000830184612dc6565b92915050565b600081519050919050565b600082825260208201905092915050565b60005b83811015612e2a578082015181840152602081019050612e0f565b60008484015250505050565b6000601f19601f8301169050919050565b6000612e5282612df0565b612e5c8185612dfb565b9350612e6c818560208601612e0c565b612e7581612e36565b840191505092915050565b60006020820190508181036000830152612e9a8184612e47565b905092915050565b6000819050919050565b612eb581612ea2565b8114612ec057600080fd5b50565b600081359050612ed281612eac565b92915050565b600060208284031215612eee57612eed612d2b565b5b6000612efc84828501612ec3565b91505092915050565b600073ffffffffffffffffffffffffffffffffffffffff82169050919050565b6000612f3082612f05565b9050919050565b612f4081612f25565b82525050565b6000602082019050612f5b6000830184612f37565b92915050565b612f6a81612f25565b8114612f7557600080fd5b50565b600081359050612f8781612f61565b92915050565b60008060408385031215612fa457612fa3612d2b565b5b6000612fb285828601612f78565b9250506020612fc385828601612ec3565b9150509250929050565b600081519050919050565b600082825260208201905092915050565b6000819050602082019050919050565b61300281612ea2565b82525050565b600061301382612f05565b9050919050565b61302381613008565b82525050565b61303281612dba565b82525050565b60a08201600082015161304e6000850182612ff9565b506020820151613061602085018261301a565b506040820151613074604085018261301a565b5060608201516130876060850182612ff9565b50608082015161309a6080850182613029565b50505050565b60006130ac8383613038565b60a08301905092915050565b6000602082019050919050565b60006130d082612fcd565b6130da8185612fd8565b93506130e583612fe9565b8060005b838110156131165781516130fd88826130a0565b9750613108836130b8565b9250506001810190506130e9565b5085935050505092915050565b6000602082019050818103600083015261313d81846130c5565b905092915050565b61314e81612ea2565b82525050565b60006020820190506131696000830184613145565b92915050565b60008060006060848603121561318857613187612d2b565b5b600061319686828701612f78565b93505060206131a786828701612f78565b92505060406131b886828701612ec3565b9150509250925092565b6000602082840312156131d8576131d7612d2b565b5b60006131e684828501612f78565b91505092915050565b600080fd5b600080fd5b7f4e487b7100000000000000000000000000000000000000000000000000000000600052604160045260246000fd5b61323182612e36565b810181811067ffffffffffffffff821117156132505761324f6131f9565b5b80604052505050565b6000613263612d21565b905061326f8282613228565b919050565b600067ffffffffffffffff82111561328f5761328e6131f9565b5b61329882612e36565b9050602081019050919050565b82818337600083830152505050565b60006132c76132c284613274565b613259565b9050828152602081018484840111156132e3576132e26131f4565b5b6132ee8482856132a5565b509392505050565b600082601f83011261330b5761330a6131ef565b5b813561331b8482602086016132b4565b91505092915050565b6000806040838503121561333b5761333a612d2b565b5b600083013567ffffffffffffffff81111561335957613358612d30565b5b613365858286016132f6565b925050602061337685828601612ec3565b9150509250929050565b61338981612dba565b811461339457600080fd5b50565b6000813590506133a681613380565b92915050565b600080604083850312156133c3576133c2612d2b565b5b60006133d185828601612f78565b92505060206133e285828601613397565b9150509250929050565b600067ffffffffffffffff821115613407576134066131f9565b5b61341082612e36565b9050602081019050919050565b600061343061342b846133ec565b613259565b90508281526020810184848401111561344c5761344b6131f4565b5b6134578482856132a5565b509392505050565b600082601f830112613474576134736131ef565b5b813561348484826020860161341d565b91505092915050565b600080600080608085870312156134a7576134a6612d2b565b5b60006134b587828801612f78565b94505060206134c687828801612f78565b93505060406134d787828801612ec3565b925050606085013567ffffffffffffffff8111156134f8576134f7612d30565b5b6135048782880161345f565b91505092959194509250565b6000806040838503121561352757613526612d2b565b5b600061353585828601612ec3565b925050602061354685828601612ec3565b9150509250929050565b6000806040838503121561356757613566612d2b565b5b600061357585828601612f78565b925050602061358685828601612f78565b9150509250929050565b7f4e487b7100000000000000000000000000000000000000000000000000000000600052602260045260246000fd5b600060028204905060018216806135d757607f821691505b6020821081036135ea576135e9613590565b5b50919050565b7f4552433732313a20617070726f76616c20746f2063757272656e74206f776e6560008201527f7200000000000000000000000000000000000000000000000000000000000000602082015250565b600061364c602183612dfb565b9150613657826135f0565b604082019050919050565b6000602082019050818103600083015261367b8161363f565b9050919050565b7f4552433732313a20617070726f76652063616c6c6572206973206e6f7420746f60008201527f6b656e206f776e6572206f7220617070726f76656420666f7220616c6c000000602082015250565b60006136de603d83612dfb565b91506136e982613682565b604082019050919050565b6000602082019050818103600083015261370d816136d1565b9050919050565b7f4e487b7100000000000000000000000000000000000000000000000000000000600052601160045260246000fd5b600061374e82612ea2565b915061375983612ea2565b925082820390508181111561377157613770613714565b5b92915050565b600061378282612ea2565b915061378d83612ea2565b92508282019050808211156137a5576137a4613714565b5b92915050565b7f4e487b7100000000000000000000000000000000000000000000000000000000600052603260045260246000fd5b7f4552433732313a2063616c6c6572206973206e6f7420746f6b656e206f776e6560008201527f72206f7220617070726f76656400000000000000000000000000000000000000602082015250565b6000613836602d83612dfb565b9150613841826137da565b604082019050919050565b6000602082019050818103600083015261386581613829565b9050919050565b7f4552433732313a20696e76616c696420746f6b656e2049440000000000000000600082015250565b60006138a2601883612dfb565b91506138ad8261386c565b602082019050919050565b600060208201905081810360008301526138d181613895565b9050919050565b7f4552433732313a2061646472657373207a65726f206973206e6f74206120766160008201527f6c6964206f776e65720000000000000000000000000000000000000000000000602082015250565b6000613934602983612dfb565b915061393f826138d8565b604082019050919050565b6000602082019050818103600083015261396381613927565b9050919050565b600081905092915050565b600061398082612df0565b61398a818561396a565b935061399a818560208601612e0c565b80840191505092915050565b60006139b28285613975565b91506139be8284613975565b91508190509392505050565b7f4552433732313a207472616e736665722066726f6d20696e636f72726563742060008201527f6f776e6572000000000000000000000000000000000000000000000000000000602082015250565b6000613a26602583612dfb565b9150613a31826139ca565b604082019050919050565b60006020820190508181036000830152613a5581613a19565b9050919050565b7f4552433732313a207472616e7366657220746f20746865207a65726f2061646460008201527f7265737300000000000000000000000000000000000000000000000000000000602082015250565b6000613ab8602483612dfb565b9150613ac382613a5c565b604082019050919050565b60006020820190508181036000830152613ae781613aab565b9050919050565b7f4552433732313a206d696e7420746f20746865207a65726f2061646472657373600082015250565b6000613b24602083612dfb565b9150613b2f82613aee565b602082019050919050565b60006020820190508181036000830152613b5381613b17565b9050919050565b7f4552433732313a20746f6b656e20616c7265616479206d696e74656400000000600082015250565b6000613b90601c83612dfb565b9150613b9b82613b5a565b602082019050919050565b60006020820190508181036000830152613bbf81613b83565b9050919050565b7f45524337323155524953746f726167653a2055524920736574206f66206e6f6e60008201527f6578697374656e7420746f6b656e000000000000000000000000000000000000602082015250565b6000613c22602e83612dfb565b9150613c2d82613bc6565b604082019050919050565b60006020820190508181036000830152613c5181613c15565b9050919050565b60008190508160005260206000209050919050565b60006020601f8301049050919050565b600082821b905092915050565b600060088302613cba7fffffffffffffffffffffffffffffffffffffffffffffffffffffffffffffffff82613c7d565b613cc48683613c7d565b95508019841693508086168417925050509392505050565b6000819050919050565b6000613d01613cfc613cf784612ea2565b613cdc565b612ea2565b9050919050565b6000819050919050565b613d1b83613ce6565b613d2f613d2782613d08565b848454613c8a565b825550505050565b600090565b613d44613d37565b613d4f818484613d12565b505050565b5b81811015613d7357613d68600082613d3c565b600181019050613d55565b5050565b601f821115613db857613d8981613c58565b613d9284613c6d565b81016020851015613da1578190505b613db5613dad85613c6d565b830182613d54565b50505b505050565b600082821c905092915050565b6000613ddb60001984600802613dbd565b1980831691505092915050565b6000613df48383613dca565b9150826002028217905092915050565b613e0d82612df0565b67ffffffffffffffff811115613e2657613e256131f9565b5b613e3082546135bf565b613e3b828285613d77565b600060209050601f831160018114613e6e5760008415613e5c578287015190505b613e668582613de8565b865550613ece565b601f198416613e7c86613c58565b60005b82811015613ea457848901518255600182019150602085019450602081019050613e7f565b86831015613ec15784890151613ebd601f891682613dca565b8355505b6001600288020188555050505b505050505050565b6000608082019050613eeb6000830187612f37565b613ef86020830186612f37565b613f056040830185613145565b613f126060830184612dc6565b95945050505050565b7f4552433732313a20617070726f766520746f2063616c6c657200000000000000600082015250565b6000613f51601983612dfb565b9150613f5c82613f1b565b602082019050919050565b60006020820190508181036000830152613f8081613f44565b9050919050565b7f4552433732313a207472616e7366657220746f206e6f6e20455243373231526560008201527f63656976657220696d706c656d656e7465720000000000000000000000000000602082015250565b6000613fe3603283612dfb565b9150613fee82613f87565b604082019050919050565b6000602082019050818103600083015261401281613fd6565b9050919050565b7f436f756e7465723a2064656372656d656e74206f766572666c6f770000000000600082015250565b600061404f601b83612dfb565b915061405a82614019565b602082019050919050565b6000602082019050818103600083015261407e81614042565b9050919050565b600081519050919050565b600082825260208201905092915050565b60006140ac82614085565b6140b68185614090565b93506140c6818560208601612e0c565b6140cf81612e36565b840191505092915050565b60006080820190506140ef6000830187612f37565b6140fc6020830186612f37565b6141096040830185613145565b818103606083015261411b81846140a1565b905095945050505050565b60008151905061413581612d61565b92915050565b60006020828403121561415157614150612d2b565b5b600061415f84828501614126565b91505092915050565b7f4e487b7100000000000000000000000000000000000000000000000000000000600052601260045260246000fdfea2646970667358221220cd146b330dd644fe64ee5082abd515227d2c567ec3a34e86693186a76c07707964736f6c63430008180033",
  "linkReferences": {},
  "deployedLinkReferences": {}
}