{
  "_format": "hh-sol-artifact-1",
  "contractName": "NftMarketPlace",
  "sourceName": "contracts/NftMarketPlace.sol",
  "abi": [
    {
      "inputs": [],
      "stateMutability": "nonpayable",
      "type": "constructor"
    },
    {
      "inputs": [],
      "name": "NftMarketPlace__CallerIsNotContractOwner",
      "type": "error"
    },
    {
      "inputs": [],
      "name": "NftMarketPlace__CallerIsNotTokenOwner",
      "type": "error"
    },
    {
      "inputs": [],
      "name": "NftMarketPlace__IncorrectListingPrice",
      "type": "error"
    },
    {
      "inputs": [],
      "name": "NftMarketPlace__IncorrectPurchaseAmount",
      "type": "error"
    },
    {
      "inputs": [],
      "name": "NftMarketPlace__PriceMustBeAboveZero",
      "type": "error"
    },
    {
      "anonymous": false,
      "inputs": [
        {
          "indexed": true,
          "internalType": "address",
          "name": "owner",
          "type": "address"
        },
        {
          "indexed": true,
          "internalType": "address",
          "name": "approved",
          "type": "address"
        },
        {
          "indexed": true,
          "internalType": "uint256",
          "name": "tokenId",
          "type": "uint256"
        }
      ],
      "name": "Approval",
      "type": "event"
    },
    {
      "anonymous": false,
      "inputs": [
        {
          "indexed": true,
          "internalType": "address",
          "name": "owner",
          "type": "address"
        },
        {
          "indexed": true,
          "internalType": "address",
          "name": "operator",
          "type": "address"
        },
        {
          "indexed": false,
          "internalType": "bool",
          "name": "approved",
          "type": "bool"
        }
      ],
      "name": "ApprovalForAll",
      "type": "event"
    },
    {
      "anonymous": false,
      "inputs": [
        {
          "indexed": false,
          "internalType": "uint256",
          "name": "_fromTokenId",
          "type": "uint256"
        },
        {
          "indexed": false,
          "internalType": "uint256",
          "name": "_toTokenId",
          "type": "uint256"
        }
      ],
      "name": "BatchMetadataUpdate",
      "type": "event"
    },
    {
      "anonymous": false,
      "inputs": [
        {
          "indexed": false,
          "internalType": "uint256",
          "name": "_tokenId",
          "type": "uint256"
        }
      ],
      "name": "MetadataUpdate",
      "type": "event"
    },
    {
      "anonymous": false,
      "inputs": [
        {
          "indexed": true,
          "internalType": "address",
          "name": "from",
          "type": "address"
        },
        {
          "indexed": true,
          "internalType": "address",
          "name": "to",
          "type": "address"
        },
        {
          "indexed": true,
          "internalType": "uint256",
          "name": "tokenId",
          "type": "uint256"
        }
      ],
      "name": "Transfer",
      "type": "event"
    },
    {
      "anonymous": false,
      "inputs": [
        {
          "indexed": true,
          "internalType": "uint256",
          "name": "tokenId",
          "type": "uint256"
        },
        {
          "indexed": false,
          "internalType": "address",
          "name": "seller",
          "type": "address"
        },
        {
          "indexed": false,
          "internalType": "address",
          "name": "owner",
          "type": "address"
        },
        {
          "indexed": false,
          "internalType": "uint256",
          "name": "price",
          "type": "uint256"
        },
        {
          "indexed": false,
          "internalType": "bool",
          "name": "sold",
          "type": "bool"
        }
      ],
      "name": "idMarketItemCreated",
      "type": "event"
    },
    {
      "inputs": [
        {
          "internalType": "address",
          "name": "to",
          "type": "address"
        },
        {
          "internalType": "uint256",
          "name": "tokenId",
          "type": "uint256"
        }
      ],
      "name": "approve",
      "outputs": [],
      "stateMutability": "nonpayable",
      "type": "function"
    },
    {
      "inputs": [
        {
          "internalType": "address",
          "name": "owner",
          "type": "address"
        }
      ],
      "name": "balanceOf",
      "outputs": [
        {
          "internalType": "uint256",
          "name": "",
          "type": "uint256"
        }
      ],
      "stateMutability": "view",
      "type": "function"
    },
    {
      "inputs": [
        {
          "internalType": "uint256",
          "name": "tokenId",
          "type": "uint256"
        }
      ],
      "name": "createMarketSale",
      "outputs": [],
      "stateMutability": "payable",
      "type": "function"
    },
    {
      "inputs": [
        {
          "internalType": "string",
          "name": "tokenUri",
          "type": "string"
        },
        {
          "internalType": "uint256",
          "name": "price",
          "type": "uint256"
        }
      ],
      "name": "createToken",
      "outputs": [
        {
          "internalType": "uint256",
          "name": "",
          "type": "uint256"
        }
      ],
      "stateMutability": "payable",
      "type": "function"
    },
    {
      "inputs": [],
      "name": "fetchItemsListed",
      "outputs": [
        {
          "components": [
            {
              "internalType": "uint256",
              "name": "tokenId",
              "type": "uint256"
            },
            {
              "internalType": "address payable",
              "name": "seller",
              "type": "address"
            },
            {
              "internalType": "address payable",
              "name": "owner",
              "type": "address"
            },
            {
              "internalType": "uint256",
              "name": "price",
              "type": "uint256"
            },
            {
              "internalType": "bool",
              "name": "sold",
              "type": "bool"
            }
          ],
          "internalType": "struct NftMarketPlace.MarketItem[]",
          "name": "",
          "type": "tuple[]"
        }
      ],
      "stateMutability": "view",
      "type": "function"
    },
    {
      "inputs": [],
      "name": "fetchMarketItems",
      "outputs": [
        {
          "components": [
            {
              "internalType": "uint256",
              "name": "tokenId",
              "type": "uint256"
            },
            {
              "internalType": "address payable",
              "name": "seller",
              "type": "address"
            },
            {
              "internalType": "address payable",
              "name": "owner",
              "type": "address"
            },
            {
              "internalType": "uint256",
              "name": "price",
              "type": "uint256"
            },
            {
              "internalType": "bool",
              "name": "sold",
              "type": "bool"
            }
          ],
          "internalType": "struct NftMarketPlace.MarketItem[]",
          "name": "",
          "type": "tuple[]"
        }
      ],
      "stateMutability": "view",
      "type": "function"
    },
    {
      "inputs": [],
      "name": "fetchMyNFT",
      "outputs": [
        {
          "components": [
            {
              "internalType": "uint256",
              "name": "tokenId",
              "type": "uint256"
            },
            {
              "internalType": "address payable",
              "name": "seller",
              "type": "address"
            },
            {
              "internalType": "address payable",
              "name": "owner",
              "type": "address"
            },
            {
              "internalType": "uint256",
              "name": "price",
              "type": "uint256"
            },
            {
              "internalType": "bool",
              "name": "sold",
              "type": "bool"
            }
          ],
          "internalType": "struct NftMarketPlace.MarketItem[]",
          "name": "",
          "type": "tuple[]"
        }
      ],
      "stateMutability": "view",
      "type": "function"
    },
    {
      "inputs": [
        {
          "internalType": "uint256",
          "name": "tokenId",
          "type": "uint256"
        }
      ],
      "name": "getApproved",
      "outputs": [
        {
          "internalType": "address",
          "name": "",
          "type": "address"
        }
      ],
      "stateMutability": "view",
      "type": "function"
    },
    {
      "inputs": [],
      "name": "getListingPrice",
      "outputs": [
        {
          "internalType": "uint256",
          "name": "",
          "type": "uint256"
        }
      ],
      "stateMutability": "view",
      "type": "function"
    },
    {
      "inputs": [
        {
          "internalType": "address",
          "name": "owner",
          "type": "address"
        },
        {
          "internalType": "address",
          "name": "operator",
          "type": "address"
        }
      ],
      "name": "isApprovedForAll",
      "outputs": [
        {
          "internalType": "bool",
          "name": "",
          "type": "bool"
        }
      ],
      "stateMutability": "view",
      "type": "function"
    },
    {
      "inputs": [],
      "name": "listingPrice",
      "outputs": [
        {
          "internalType": "uint256",
          "name": "",
          "type": "uint256"
        }
      ],
      "stateMutability": "view",
      "type": "function"
    },
    {
      "inputs": [],
      "name": "name",
      "outputs": [
        {
          "internalType": "string",
          "name": "",
          "type": "string"
        }
      ],
      "stateMutability": "view",
      "type": "function"
    },
    {
      "inputs": [
        {
          "internalType": "uint256",
          "name": "tokenId",
          "type": "uint256"
        }
      ],
      "name": "ownerOf",
      "outputs": [
        {
          "internalType": "address",
          "name": "",
          "type": "address"
        }
      ],
      "stateMutability": "view",
      "type": "function"
    },
    {
      "inputs": [
        {
          "internalType": "uint256",
          "name": "tokenId",
          "type": "uint256"
        },
        {
          "internalType": "uint256",
          "name": "price",
          "type": "uint256"
        }
      ],
      "name": "reSellToken",
      "outputs": [],
      "stateMutability": "payable",
      "type": "function"
    },
    {
      "inputs": [
        {
          "internalType": "address",
          "name": "from",
          "type": "address"
        },
        {
          "internalType": "address",
          "name": "to",
          "type": "address"
        },
        {
          "internalType": "uint256",
          "name": "tokenId",
          "type": "uint256"
        }
      ],
      "name": "safeTransferFrom",
      "outputs": [],
      "stateMutability": "nonpayable",
      "type": "function"
    },
    {
      "inputs": [
        {
          "internalType": "address",
          "name": "from",
          "type": "address"
        },
        {
          "internalType": "address",
          "name": "to",
          "type": "address"
        },
        {
          "internalType": "uint256",
          "name": "tokenId",
          "type": "uint256"
        },
        {
          "internalType": "bytes",
          "name": "data",
          "type": "bytes"
        }
      ],
      "name": "safeTransferFrom",
      "outputs": [],
      "stateMutability": "nonpayable",
      "type": "function"
    },
    {
      "inputs": [
        {
          "internalType": "address",
          "name": "operator",
          "type": "address"
        },
        {
          "internalType": "bool",
          "name": "approved",
          "type": "bool"
        }
      ],
      "name": "setApprovalForAll",
      "outputs": [],
      "stateMutability": "nonpayable",
      "type": "function"
    },
    {
      "inputs": [
        {
          "internalType": "bytes4",
          "name": "interfaceId",
          "type": "bytes4"
        }
      ],
      "name": "supportsInterface",
      "outputs": [
        {
          "internalType": "bool",
          "name": "",
          "type": "bool"
        }
      ],
      "stateMutability": "view",
      "type": "function"
    },
    {
      "inputs": [],
      "name": "symbol",
      "outputs": [
        {
          "internalType": "string",
          "name": "",
          "type": "string"
        }
      ],
      "stateMutability": "view",
      "type": "function"
    },
    {
      "inputs": [
        {
          "internalType": "uint256",
          "name": "tokenId",
          "type": "uint256"
        }
      ],
      "name": "tokenURI",
      "outputs": [
        {
          "internalType": "string",
          "name": "",
          "type": "string"
        }
      ],
      "stateMutability": "view",
      "type": "function"
    },
    {
      "inputs": [
        {
          "internalType": "address",
          "name": "from",
          "type": "address"
        },
        {
          "internalType": "address",
          "name": "to",
          "type": "address"
        },
        {
          "internalType": "uint256",
          "name": "tokenId",
          "type": "uint256"
        }
      ],
      "name": "transferFrom",
      "outputs": [],
      "stateMutability": "nonpayable",
      "type": "function"
    },
    {
      "inputs": [
        {
          "internalType": "uint256",
          "name": "_listingPrice",
          "type": "uint256"
        }
      ],
      "name": "updateListingPriceFee",
      "outputs": [],
      "stateMutability": "payable",
      "type": "function"
    }
  ],
  "bytecode": "0x60806040526608e1bc9bf04000600b553480156200001c57600080fd5b506040518060400160405280601381526020017f4e4654204d657461766572736520546f6b656e000000000000000000000000008152506040518060400160405280600581526020017f4d594e465400000000000000000000000000000000000000000000000000000081525081600090816200009a919062000370565b508060019081620000ac919062000370565b50505033600960006101000a81548173ffffffffffffffffffffffffffffffffffffffff021916908373ffffffffffffffffffffffffffffffffffffffff16021790555062000457565b600081519050919050565b7f4e487b7100000000000000000000000000000000000000000000000000000000600052604160045260246000fd5b7f4e487b7100000000000000000000000000000000000000000000000000000000600052602260045260246000fd5b600060028204905060018216806200017857607f821691505b6020821081036200018e576200018d62000130565b5b50919050565b60008190508160005260206000209050919050565b60006020601f8301049050919050565b600082821b905092915050565b600060088302620001f87fffffffffffffffffffffffffffffffffffffffffffffffffffffffffffffffff82620001b9565b620002048683620001b9565b95508019841693508086168417925050509392505050565b6000819050919050565b6000819050919050565b6000620002516200024b62000245846200021c565b62000226565b6200021c565b9050919050565b6000819050919050565b6200026d8362000230565b620002856200027c8262000258565b848454620001c6565b825550505050565b600090565b6200029c6200028d565b620002a981848462000262565b505050565b5b81811015620002d157620002c560008262000292565b600181019050620002af565b5050565b601f8211156200032057620002ea8162000194565b620002f584620001a9565b8101602085101562000305578190505b6200031d6200031485620001a9565b830182620002ae565b50505b505050565b600082821c905092915050565b6000620003456000198460080262000325565b1980831691505092915050565b600062000360838362000332565b9150826002028217905092915050565b6200037b82620000f6565b67ffffffffffffffff81111562000397576200039662000101565b5b620003a382546200015f565b620003b0828285620002d5565b600060209050601f831160018114620003e85760008415620003d3578287015190505b620003df858262000352565b8655506200044f565b601f198416620003f88662000194565b60005b828110156200042257848901518255600182019150602085019450602081019050620003fb565b868310156200044257848901516200043e601f89168262000332565b8355505b6001600288020188555050505b505050505050565b613fb780620004676000396000f3fe6080604052600436106101355760003560e01c806372b3b620116100ab578063b88d4fde1161006f578063b88d4fde14610411578063be9af5361461043a578063c18763f714610456578063c78f19f914610481578063c87b56dd146104ac578063e985e9c5146104e957610135565b806372b3b620146103555780637a3dab371461038557806385535b25146103a157806395d89b41146103bd578063a22cb465146103e857610135565b806312e85585116100fd57806312e855851461023357806323b872dd1461025e57806342842e0e1461028757806345f8fa80146102b05780636352211e146102db57806370a082311461031857610135565b806301ffc9a71461013a57806306fdde0314610177578063081812fc146101a2578063095ea7b3146101df5780630f08efe014610208575b600080fd5b34801561014657600080fd5b50610161600480360381019061015c9190612b77565b610526565b60405161016e9190612bbf565b60405180910390f35b34801561018357600080fd5b5061018c610587565b6040516101999190612c6a565b60405180910390f35b3480156101ae57600080fd5b506101c960048036038101906101c49190612cc2565b610619565b6040516101d69190612d30565b60405180910390f35b3480156101eb57600080fd5b5061020660048036038101906102019190612d77565b61065f565b005b34801561021457600080fd5b5061021d610776565b60405161022a9190612f0d565b60405180910390f35b34801561023f57600080fd5b506102486109d8565b6040516102559190612f3e565b60405180910390f35b34801561026a57600080fd5b5061028560048036038101906102809190612f59565b6109e2565b005b34801561029357600080fd5b506102ae60048036038101906102a99190612f59565b610a42565b005b3480156102bc57600080fd5b506102c5610a62565b6040516102d29190612f0d565b60405180910390f35b3480156102e757600080fd5b5061030260048036038101906102fd9190612cc2565b610d42565b60405161030f9190612d30565b60405180910390f35b34801561032457600080fd5b5061033f600480360381019061033a9190612fac565b610dc8565b60405161034c9190612f3e565b60405180910390f35b61036f600480360381019061036a919061310e565b610e7f565b60405161037c9190612f3e565b60405180910390f35b61039f600480360381019061039a9190612cc2565b610ec1565b005b6103bb60048036038101906103b6919061316a565b610f52565b005b3480156103c957600080fd5b506103d2611135565b6040516103df9190612c6a565b60405180910390f35b3480156103f457600080fd5b5061040f600480360381019061040a91906131d6565b6111c7565b005b34801561041d57600080fd5b50610438600480360381019061043391906132b7565b6111dd565b005b610454600480360381019061044f9190612cc2565b61123f565b005b34801561046257600080fd5b5061046b61146e565b6040516104789190612f0d565b60405180910390f35b34801561048d57600080fd5b5061049661174e565b6040516104a39190612f3e565b60405180910390f35b3480156104b857600080fd5b506104d360048036038101906104ce9190612cc2565b611754565b6040516104e09190612c6a565b60405180910390f35b3480156104f557600080fd5b50610510600480360381019061050b919061333a565b611866565b60405161051d9190612bbf565b60405180910390f35b6000634906490660e01b7bffffffffffffffffffffffffffffffffffffffffffffffffffffffff1916827bffffffffffffffffffffffffffffffffffffffffffffffffffffffff19161480610580575061057f826118fa565b5b9050919050565b606060008054610596906133a9565b80601f01602080910402602001604051908101604052809291908181526020018280546105c2906133a9565b801561060f5780601f106105e45761010080835404028352916020019161060f565b820191906000526020600020905b8154815290600101906020018083116105f257829003601f168201915b5050505050905090565b6000610624826119dc565b6004600083815260200190815260200160002060009054906101000a900473ffffffffffffffffffffffffffffffffffffffff169050919050565b600061066a82610d42565b90508073ffffffffffffffffffffffffffffffffffffffff168373ffffffffffffffffffffffffffffffffffffffff16036106da576040517f08c379a00000000000000000000000000000000000000000000000000000000081526004016106d19061344c565b60405180910390fd5b8073ffffffffffffffffffffffffffffffffffffffff166106f9611a27565b73ffffffffffffffffffffffffffffffffffffffff161480610728575061072781610722611a27565b611866565b5b610767576040517f08c379a000000000000000000000000000000000000000000000000000000000815260040161075e906134de565b60405180910390fd5b6107718383611a2f565b505050565b606060006107846007611ae8565b905060006107926008611ae8565b61079c6007611ae8565b6107a6919061352d565b90506000808267ffffffffffffffff8111156107c5576107c4612fe3565b5b6040519080825280602002602001820160405280156107fe57816020015b6107eb612aae565b8152602001906001900390816107e35790505b50905060005b848110156109cd573073ffffffffffffffffffffffffffffffffffffffff16600a60006001846108349190613561565b815260200190815260200160002060020160009054906101000a900473ffffffffffffffffffffffffffffffffffffffff1673ffffffffffffffffffffffffffffffffffffffff16036109c05760006001826108909190613561565b90506000600a60008381526020019081526020016000209050806040518060a0016040529081600082015481526020016001820160009054906101000a900473ffffffffffffffffffffffffffffffffffffffff1673ffffffffffffffffffffffffffffffffffffffff1673ffffffffffffffffffffffffffffffffffffffff1681526020016002820160009054906101000a900473ffffffffffffffffffffffffffffffffffffffff1673ffffffffffffffffffffffffffffffffffffffff1673ffffffffffffffffffffffffffffffffffffffff168152602001600382015481526020016004820160009054906101000a900460ff1615151515815250508486815181106109a3576109a2613595565b5b60200260200101819052506001856109bb9190613561565b945050505b8080600101915050610804565b508094505050505090565b6000600b54905090565b6109f36109ed611a27565b82611af6565b610a32576040517f08c379a0000000000000000000000000000000000000000000000000000000008152600401610a2990613636565b60405180910390fd5b610a3d838383611b8b565b505050565b610a5d838383604051806020016040528060008152506111dd565b505050565b60606000610a706007611ae8565b905060008060005b83811015610b12573373ffffffffffffffffffffffffffffffffffffffff16600a6000600184610aa89190613561565b815260200190815260200160002060010160009054906101000a900473ffffffffffffffffffffffffffffffffffffffff1673ffffffffffffffffffffffffffffffffffffffff1603610b0557600183610b029190613561565b92505b8080600101915050610a78565b5060008267ffffffffffffffff811115610b2f57610b2e612fe3565b5b604051908082528060200260200182016040528015610b6857816020015b610b55612aae565b815260200190600190039081610b4d5790505b50905060005b84811015610d37573373ffffffffffffffffffffffffffffffffffffffff16600a6000600184610b9e9190613561565b815260200190815260200160002060010160009054906101000a900473ffffffffffffffffffffffffffffffffffffffff1673ffffffffffffffffffffffffffffffffffffffff1603610d2a576000600182610bfa9190613561565b90506000600a60008381526020019081526020016000209050806040518060a0016040529081600082015481526020016001820160009054906101000a900473ffffffffffffffffffffffffffffffffffffffff1673ffffffffffffffffffffffffffffffffffffffff1673ffffffffffffffffffffffffffffffffffffffff1681526020016002820160009054906101000a900473ffffffffffffffffffffffffffffffffffffffff1673ffffffffffffffffffffffffffffffffffffffff1673ffffffffffffffffffffffffffffffffffffffff168152602001600382015481526020016004820160009054906101000a900460ff161515151581525050848681518110610d0d57610d0c613595565b5b6020026020010181905250600185610d259190613561565b945050505b8080600101915050610b6e565b508094505050505090565b600080610d4e83611e84565b9050600073ffffffffffffffffffffffffffffffffffffffff168173ffffffffffffffffffffffffffffffffffffffff1603610dbf576040517f08c379a0000000000000000000000000000000000000000000000000000000008152600401610db6906136a2565b60405180910390fd5b80915050919050565b60008073ffffffffffffffffffffffffffffffffffffffff168273ffffffffffffffffffffffffffffffffffffffff1603610e38576040517f08c379a0000000000000000000000000000000000000000000000000000000008152600401610e2f90613734565b60405180910390fd5b600360008373ffffffffffffffffffffffffffffffffffffffff1673ffffffffffffffffffffffffffffffffffffffff168152602001908152602001600020549050919050565b6000610e8b6007611ec1565b6000610e976007611ae8565b9050610ea33382611ed7565b610ead81856120f4565b610eb78184612198565b8091505092915050565b600960009054906101000a900473ffffffffffffffffffffffffffffffffffffffff1673ffffffffffffffffffffffffffffffffffffffff163373ffffffffffffffffffffffffffffffffffffffff1614610f48576040517fbcb2b6be00000000000000000000000000000000000000000000000000000000815260040160405180910390fd5b80600b8190555050565b3373ffffffffffffffffffffffffffffffffffffffff16600a600084815260200190815260200160002060020160009054906101000a900473ffffffffffffffffffffffffffffffffffffffff1673ffffffffffffffffffffffffffffffffffffffff1614610fed576040517fed4546b200000000000000000000000000000000000000000000000000000000815260040160405180910390fd5b600b543414611028576040517f778ac87d00000000000000000000000000000000000000000000000000000000815260040160405180910390fd5b6000600a600084815260200190815260200160002060040160006101000a81548160ff02191690831515021790555080600a60008481526020019081526020016000206003018190555033600a600084815260200190815260200160002060010160006101000a81548173ffffffffffffffffffffffffffffffffffffffff021916908373ffffffffffffffffffffffffffffffffffffffff16021790555030600a600084815260200190815260200160002060020160006101000a81548173ffffffffffffffffffffffffffffffffffffffff021916908373ffffffffffffffffffffffffffffffffffffffff1602179055506111266008612389565b611131333084611b8b565b5050565b606060018054611144906133a9565b80601f0160208091040260200160405190810160405280929190818152602001828054611170906133a9565b80156111bd5780601f10611192576101008083540402835291602001916111bd565b820191906000526020600020905b8154815290600101906020018083116111a057829003601f168201915b5050505050905090565b6111d96111d2611a27565b83836123e5565b5050565b6111ee6111e8611a27565b83611af6565b61122d576040517f08c379a000000000000000000000000000000000000000000000000000000000815260040161122490613636565b60405180910390fd5b61123984848484612551565b50505050565b6000600a6000838152602001908152602001600020600301549050803414611293576040517f9407bc8500000000000000000000000000000000000000000000000000000000815260040160405180910390fd5b33600a600084815260200190815260200160002060020160006101000a81548173ffffffffffffffffffffffffffffffffffffffff021916908373ffffffffffffffffffffffffffffffffffffffff1602179055506001600a600084815260200190815260200160002060040160006101000a81548160ff0219169083151502179055506000600a600084815260200190815260200160002060010160006101000a81548173ffffffffffffffffffffffffffffffffffffffff021916908373ffffffffffffffffffffffffffffffffffffffff1602179055506113776008611ec1565b611382303384611b8b565b600960009054906101000a900473ffffffffffffffffffffffffffffffffffffffff1673ffffffffffffffffffffffffffffffffffffffff166108fc600b549081150290604051600060405180830381858888f193505050501580156113ec573d6000803e3d6000fd5b50600a600083815260200190815260200160002060010160009054906101000a900473ffffffffffffffffffffffffffffffffffffffff1673ffffffffffffffffffffffffffffffffffffffff166108fc349081150290604051600060405180830381858888f19350505050158015611469573d6000803e3d6000fd5b505050565b6060600061147c6007611ae8565b905060008060005b8381101561151e573373ffffffffffffffffffffffffffffffffffffffff16600a60006001846114b49190613561565b815260200190815260200160002060020160009054906101000a900473ffffffffffffffffffffffffffffffffffffffff1673ffffffffffffffffffffffffffffffffffffffff16036115115760018361150e9190613561565b92505b8080600101915050611484565b5060008267ffffffffffffffff81111561153b5761153a612fe3565b5b60405190808252806020026020018201604052801561157457816020015b611561612aae565b8152602001906001900390816115595790505b50905060005b84811015611743573373ffffffffffffffffffffffffffffffffffffffff16600a60006001846115aa9190613561565b815260200190815260200160002060020160009054906101000a900473ffffffffffffffffffffffffffffffffffffffff1673ffffffffffffffffffffffffffffffffffffffff16036117365760006001826116069190613561565b90506000600a60008381526020019081526020016000209050806040518060a0016040529081600082015481526020016001820160009054906101000a900473ffffffffffffffffffffffffffffffffffffffff1673ffffffffffffffffffffffffffffffffffffffff1673ffffffffffffffffffffffffffffffffffffffff1681526020016002820160009054906101000a900473ffffffffffffffffffffffffffffffffffffffff1673ffffffffffffffffffffffffffffffffffffffff1673ffffffffffffffffffffffffffffffffffffffff168152602001600382015481526020016004820160009054906101000a900460ff16151515158152505084868151811061171957611718613595565b5b60200260200101819052506001856117319190613561565b945050505b808060010191505061157a565b508094505050505090565b600b5481565b606061175f826119dc565b600060066000848152602001908152602001600020805461177f906133a9565b80601f01602080910402602001604051908101604052809291908181526020018280546117ab906133a9565b80156117f85780601f106117cd576101008083540402835291602001916117f8565b820191906000526020600020905b8154815290600101906020018083116117db57829003601f168201915b5050505050905060006118096125ad565b9050600081510361181e578192505050611861565b60008251111561185357808260405160200161183b929190613790565b60405160208183030381529060405292505050611861565b61185c846125c4565b925050505b919050565b6000600560008473ffffffffffffffffffffffffffffffffffffffff1673ffffffffffffffffffffffffffffffffffffffff16815260200190815260200160002060008373ffffffffffffffffffffffffffffffffffffffff1673ffffffffffffffffffffffffffffffffffffffff16815260200190815260200160002060009054906101000a900460ff16905092915050565b60007f80ac58cd000000000000000000000000000000000000000000000000000000007bffffffffffffffffffffffffffffffffffffffffffffffffffffffff1916827bffffffffffffffffffffffffffffffffffffffffffffffffffffffff191614806119c557507f5b5e139f000000000000000000000000000000000000000000000000000000007bffffffffffffffffffffffffffffffffffffffffffffffffffffffff1916827bffffffffffffffffffffffffffffffffffffffffffffffffffffffff1916145b806119d557506119d48261262c565b5b9050919050565b6119e581612696565b611a24576040517f08c379a0000000000000000000000000000000000000000000000000000000008152600401611a1b906136a2565b60405180910390fd5b50565b600033905090565b816004600083815260200190815260200160002060006101000a81548173ffffffffffffffffffffffffffffffffffffffff021916908373ffffffffffffffffffffffffffffffffffffffff160217905550808273ffffffffffffffffffffffffffffffffffffffff16611aa283610d42565b73ffffffffffffffffffffffffffffffffffffffff167f8c5be1e5ebec7d5bd14f71427d1e84f3dd0314c0f7b2291e5b200ac8c7c3b92560405160405180910390a45050565b600081600001549050919050565b600080611b0283610d42565b90508073ffffffffffffffffffffffffffffffffffffffff168473ffffffffffffffffffffffffffffffffffffffff161480611b445750611b438185611866565b5b80611b8257508373ffffffffffffffffffffffffffffffffffffffff16611b6a84610619565b73ffffffffffffffffffffffffffffffffffffffff16145b91505092915050565b8273ffffffffffffffffffffffffffffffffffffffff16611bab82610d42565b73ffffffffffffffffffffffffffffffffffffffff1614611c01576040517f08c379a0000000000000000000000000000000000000000000000000000000008152600401611bf890613826565b60405180910390fd5b600073ffffffffffffffffffffffffffffffffffffffff168273ffffffffffffffffffffffffffffffffffffffff1603611c70576040517f08c379a0000000000000000000000000000000000000000000000000000000008152600401611c67906138b8565b60405180910390fd5b611c7d83838360016126d7565b8273ffffffffffffffffffffffffffffffffffffffff16611c9d82610d42565b73ffffffffffffffffffffffffffffffffffffffff1614611cf3576040517f08c379a0000000000000000000000000000000000000000000000000000000008152600401611cea90613826565b60405180910390fd5b6004600082815260200190815260200160002060006101000a81549073ffffffffffffffffffffffffffffffffffffffff02191690556001600360008573ffffffffffffffffffffffffffffffffffffffff1673ffffffffffffffffffffffffffffffffffffffff168152602001908152602001600020600082825403925050819055506001600360008473ffffffffffffffffffffffffffffffffffffffff1673ffffffffffffffffffffffffffffffffffffffff16815260200190815260200160002060008282540192505081905550816002600083815260200190815260200160002060006101000a81548173ffffffffffffffffffffffffffffffffffffffff021916908373ffffffffffffffffffffffffffffffffffffffff160217905550808273ffffffffffffffffffffffffffffffffffffffff168473ffffffffffffffffffffffffffffffffffffffff167fddf252ad1be2c89b69c2b068fc378daa952ba7f163c4a11628f55a4df523b3ef60405160405180910390a4611e7f83838360016126dd565b505050565b60006002600083815260200190815260200160002060009054906101000a900473ffffffffffffffffffffffffffffffffffffffff169050919050565b6001816000016000828254019250508190555050565b600073ffffffffffffffffffffffffffffffffffffffff168273ffffffffffffffffffffffffffffffffffffffff1603611f46576040517f08c379a0000000000000000000000000000000000000000000000000000000008152600401611f3d90613924565b60405180910390fd5b611f4f81612696565b15611f8f576040517f08c379a0000000000000000000000000000000000000000000000000000000008152600401611f8690613990565b60405180910390fd5b611f9d6000838360016126d7565b611fa681612696565b15611fe6576040517f08c379a0000000000000000000000000000000000000000000000000000000008152600401611fdd90613990565b60405180910390fd5b6001600360008473ffffffffffffffffffffffffffffffffffffffff1673ffffffffffffffffffffffffffffffffffffffff16815260200190815260200160002060008282540192505081905550816002600083815260200190815260200160002060006101000a81548173ffffffffffffffffffffffffffffffffffffffff021916908373ffffffffffffffffffffffffffffffffffffffff160217905550808273ffffffffffffffffffffffffffffffffffffffff16600073ffffffffffffffffffffffffffffffffffffffff167fddf252ad1be2c89b69c2b068fc378daa952ba7f163c4a11628f55a4df523b3ef60405160405180910390a46120f06000838360016126dd565b5050565b6120fd82612696565b61213c576040517f08c379a000000000000000000000000000000000000000000000000000000000815260040161213390613a22565b60405180910390fd5b8060066000848152602001908152602001600020908161215c9190613bee565b507ff8e1a15aba9398e019f0b49df1a4fde98ee17ae345cb5f6b5e2c27f5033e8ce78260405161218c9190612f3e565b60405180910390a15050565b600081116121d2576040517f01e6e2e700000000000000000000000000000000000000000000000000000000815260040160405180910390fd5b600b54341461220d576040517f778ac87d00000000000000000000000000000000000000000000000000000000815260040160405180910390fd5b6040518060a001604052808381526020013373ffffffffffffffffffffffffffffffffffffffff1681526020013073ffffffffffffffffffffffffffffffffffffffff16815260200182815260200160001515815250600a60008481526020019081526020016000206000820151816000015560208201518160010160006101000a81548173ffffffffffffffffffffffffffffffffffffffff021916908373ffffffffffffffffffffffffffffffffffffffff16021790555060408201518160020160006101000a81548173ffffffffffffffffffffffffffffffffffffffff021916908373ffffffffffffffffffffffffffffffffffffffff1602179055506060820151816003015560808201518160040160006101000a81548160ff021916908315150217905550905050612346333084611b8b565b817fdebdb32cb5230ab727c9c361b16fdb2015df225c10e6a3e7f60ecd5dc5be4516333084600060405161237d9493929190613cc0565b60405180910390a25050565b600081600001549050600081116123d5576040517f08c379a00000000000000000000000000000000000000000000000000000000081526004016123cc90613d51565b60405180910390fd5b6001810382600001819055505050565b8173ffffffffffffffffffffffffffffffffffffffff168373ffffffffffffffffffffffffffffffffffffffff1603612453576040517f08c379a000000000000000000000000000000000000000000000000000000000815260040161244a90613dbd565b60405180910390fd5b80600560008573ffffffffffffffffffffffffffffffffffffffff1673ffffffffffffffffffffffffffffffffffffffff16815260200190815260200160002060008473ffffffffffffffffffffffffffffffffffffffff1673ffffffffffffffffffffffffffffffffffffffff16815260200190815260200160002060006101000a81548160ff0219169083151502179055508173ffffffffffffffffffffffffffffffffffffffff168373ffffffffffffffffffffffffffffffffffffffff167f17307eab39ab6107e8899845ad3d59bd9653f200f220920489ca2b5937696c31836040516125449190612bbf565b60405180910390a3505050565b61255c848484611b8b565b612568848484846126e3565b6125a7576040517f08c379a000000000000000000000000000000000000000000000000000000000815260040161259e90613e4f565b60405180910390fd5b50505050565b606060405180602001604052806000815250905090565b60606125cf826119dc565b60006125d96125ad565b905060008151116125f95760405180602001604052806000815250612624565b806126038461286a565b604051602001612614929190613790565b6040516020818303038152906040525b915050919050565b60007f01ffc9a7000000000000000000000000000000000000000000000000000000007bffffffffffffffffffffffffffffffffffffffffffffffffffffffff1916827bffffffffffffffffffffffffffffffffffffffffffffffffffffffff1916149050919050565b60008073ffffffffffffffffffffffffffffffffffffffff166126b883611e84565b73ffffffffffffffffffffffffffffffffffffffff1614159050919050565b50505050565b50505050565b60006127048473ffffffffffffffffffffffffffffffffffffffff16612938565b1561285d578373ffffffffffffffffffffffffffffffffffffffff1663150b7a0261272d611a27565b8786866040518563ffffffff1660e01b815260040161274f9493929190613ec4565b6020604051808303816000875af192505050801561278b57506040513d601f19601f820116820180604052508101906127889190613f25565b60015b61280d573d80600081146127bb576040519150601f19603f3d011682016040523d82523d6000602084013e6127c0565b606091505b506000815103612805576040517f08c379a00000000000000000000000000000000000000000000000000000000081526004016127fc90613e4f565b60405180910390fd5b805181602001fd5b63150b7a0260e01b7bffffffffffffffffffffffffffffffffffffffffffffffffffffffff1916817bffffffffffffffffffffffffffffffffffffffffffffffffffffffff191614915050612862565b600190505b949350505050565b6060600060016128798461295b565b01905060008167ffffffffffffffff81111561289857612897612fe3565b5b6040519080825280601f01601f1916602001820160405280156128ca5781602001600182028036833780820191505090505b509050600082602001820190505b60011561292d578080600190039150507f3031323334353637383961626364656600000000000000000000000000000000600a86061a8153600a858161292157612920613f52565b5b049450600085036128d8575b819350505050919050565b6000808273ffffffffffffffffffffffffffffffffffffffff163b119050919050565b600080600090507a184f03e93ff9f4daa797ed6e38ed64bf6a1f01000000000000000083106129b9577a184f03e93ff9f4daa797ed6e38ed64bf6a1f01000000000000000083816129af576129ae613f52565b5b0492506040810190505b6d04ee2d6d415b85acef810000000083106129f6576d04ee2d6d415b85acef810000000083816129ec576129eb613f52565b5b0492506020810190505b662386f26fc100008310612a2557662386f26fc100008381612a1b57612a1a613f52565b5b0492506010810190505b6305f5e1008310612a4e576305f5e1008381612a4457612a43613f52565b5b0492506008810190505b6127108310612a73576127108381612a6957612a68613f52565b5b0492506004810190505b60648310612a965760648381612a8c57612a8b613f52565b5b0492506002810190505b600a8310612aa5576001810190505b80915050919050565b6040518060a0016040528060008152602001600073ffffffffffffffffffffffffffffffffffffffff168152602001600073ffffffffffffffffffffffffffffffffffffffff168152602001600081526020016000151581525090565b6000604051905090565b600080fd5b600080fd5b60007fffffffff0000000000000000000000000000000000000000000000000000000082169050919050565b612b5481612b1f565b8114612b5f57600080fd5b50565b600081359050612b7181612b4b565b92915050565b600060208284031215612b8d57612b8c612b15565b5b6000612b9b84828501612b62565b91505092915050565b60008115159050919050565b612bb981612ba4565b82525050565b6000602082019050612bd46000830184612bb0565b92915050565b600081519050919050565b600082825260208201905092915050565b60005b83811015612c14578082015181840152602081019050612bf9565b60008484015250505050565b6000601f19601f8301169050919050565b6000612c3c82612bda565b612c468185612be5565b9350612c56818560208601612bf6565b612c5f81612c20565b840191505092915050565b60006020820190508181036000830152612c848184612c31565b905092915050565b6000819050919050565b612c9f81612c8c565b8114612caa57600080fd5b50565b600081359050612cbc81612c96565b92915050565b600060208284031215612cd857612cd7612b15565b5b6000612ce684828501612cad565b91505092915050565b600073ffffffffffffffffffffffffffffffffffffffff82169050919050565b6000612d1a82612cef565b9050919050565b612d2a81612d0f565b82525050565b6000602082019050612d456000830184612d21565b92915050565b612d5481612d0f565b8114612d5f57600080fd5b50565b600081359050612d7181612d4b565b92915050565b60008060408385031215612d8e57612d8d612b15565b5b6000612d9c85828601612d62565b9250506020612dad85828601612cad565b9150509250929050565b600081519050919050565b600082825260208201905092915050565b6000819050602082019050919050565b612dec81612c8c565b82525050565b6000612dfd82612cef565b9050919050565b612e0d81612df2565b82525050565b612e1c81612ba4565b82525050565b60a082016000820151612e386000850182612de3565b506020820151612e4b6020850182612e04565b506040820151612e5e6040850182612e04565b506060820151612e716060850182612de3565b506080820151612e846080850182612e13565b50505050565b6000612e968383612e22565b60a08301905092915050565b6000602082019050919050565b6000612eba82612db7565b612ec48185612dc2565b9350612ecf83612dd3565b8060005b83811015612f00578151612ee78882612e8a565b9750612ef283612ea2565b925050600181019050612ed3565b5085935050505092915050565b60006020820190508181036000830152612f278184612eaf565b905092915050565b612f3881612c8c565b82525050565b6000602082019050612f536000830184612f2f565b92915050565b600080600060608486031215612f7257612f71612b15565b5b6000612f8086828701612d62565b9350506020612f9186828701612d62565b9250506040612fa286828701612cad565b9150509250925092565b600060208284031215612fc257612fc1612b15565b5b6000612fd084828501612d62565b91505092915050565b600080fd5b600080fd5b7f4e487b7100000000000000000000000000000000000000000000000000000000600052604160045260246000fd5b61301b82612c20565b810181811067ffffffffffffffff8211171561303a57613039612fe3565b5b80604052505050565b600061304d612b0b565b90506130598282613012565b919050565b600067ffffffffffffffff82111561307957613078612fe3565b5b61308282612c20565b9050602081019050919050565b82818337600083830152505050565b60006130b16130ac8461305e565b613043565b9050828152602081018484840111156130cd576130cc612fde565b5b6130d884828561308f565b509392505050565b600082601f8301126130f5576130f4612fd9565b5b813561310584826020860161309e565b91505092915050565b6000806040838503121561312557613124612b15565b5b600083013567ffffffffffffffff81111561314357613142612b1a565b5b61314f858286016130e0565b925050602061316085828601612cad565b9150509250929050565b6000806040838503121561318157613180612b15565b5b600061318f85828601612cad565b92505060206131a085828601612cad565b9150509250929050565b6131b381612ba4565b81146131be57600080fd5b50565b6000813590506131d0816131aa565b92915050565b600080604083850312156131ed576131ec612b15565b5b60006131fb85828601612d62565b925050602061320c858286016131c1565b9150509250929050565b600067ffffffffffffffff82111561323157613230612fe3565b5b61323a82612c20565b9050602081019050919050565b600061325a61325584613216565b613043565b90508281526020810184848401111561327657613275612fde565b5b61328184828561308f565b509392505050565b600082601f83011261329e5761329d612fd9565b5b81356132ae848260208601613247565b91505092915050565b600080600080608085870312156132d1576132d0612b15565b5b60006132df87828801612d62565b94505060206132f087828801612d62565b935050604061330187828801612cad565b925050606085013567ffffffffffffffff81111561332257613321612b1a565b5b61332e87828801613289565b91505092959194509250565b6000806040838503121561335157613350612b15565b5b600061335f85828601612d62565b925050602061337085828601612d62565b9150509250929050565b7f4e487b7100000000000000000000000000000000000000000000000000000000600052602260045260246000fd5b600060028204905060018216806133c157607f821691505b6020821081036133d4576133d361337a565b5b50919050565b7f4552433732313a20617070726f76616c20746f2063757272656e74206f776e6560008201527f7200000000000000000000000000000000000000000000000000000000000000602082015250565b6000613436602183612be5565b9150613441826133da565b604082019050919050565b6000602082019050818103600083015261346581613429565b9050919050565b7f4552433732313a20617070726f76652063616c6c6572206973206e6f7420746f60008201527f6b656e206f776e6572206f7220617070726f76656420666f7220616c6c000000602082015250565b60006134c8603d83612be5565b91506134d38261346c565b604082019050919050565b600060208201905081810360008301526134f7816134bb565b9050919050565b7f4e487b7100000000000000000000000000000000000000000000000000000000600052601160045260246000fd5b600061353882612c8c565b915061354383612c8c565b925082820390508181111561355b5761355a6134fe565b5b92915050565b600061356c82612c8c565b915061357783612c8c565b925082820190508082111561358f5761358e6134fe565b5b92915050565b7f4e487b7100000000000000000000000000000000000000000000000000000000600052603260045260246000fd5b7f4552433732313a2063616c6c6572206973206e6f7420746f6b656e206f776e6560008201527f72206f7220617070726f76656400000000000000000000000000000000000000602082015250565b6000613620602d83612be5565b915061362b826135c4565b604082019050919050565b6000602082019050818103600083015261364f81613613565b9050919050565b7f4552433732313a20696e76616c696420746f6b656e2049440000000000000000600082015250565b600061368c601883612be5565b915061369782613656565b602082019050919050565b600060208201905081810360008301526136bb8161367f565b9050919050565b7f4552433732313a2061646472657373207a65726f206973206e6f74206120766160008201527f6c6964206f776e65720000000000000000000000000000000000000000000000602082015250565b600061371e602983612be5565b9150613729826136c2565b604082019050919050565b6000602082019050818103600083015261374d81613711565b9050919050565b600081905092915050565b600061376a82612bda565b6137748185613754565b9350613784818560208601612bf6565b80840191505092915050565b600061379c828561375f565b91506137a8828461375f565b91508190509392505050565b7f4552433732313a207472616e736665722066726f6d20696e636f72726563742060008201527f6f776e6572000000000000000000000000000000000000000000000000000000602082015250565b6000613810602583612be5565b915061381b826137b4565b604082019050919050565b6000602082019050818103600083015261383f81613803565b9050919050565b7f4552433732313a207472616e7366657220746f20746865207a65726f2061646460008201527f7265737300000000000000000000000000000000000000000000000000000000602082015250565b60006138a2602483612be5565b91506138ad82613846565b604082019050919050565b600060208201905081810360008301526138d181613895565b9050919050565b7f4552433732313a206d696e7420746f20746865207a65726f2061646472657373600082015250565b600061390e602083612be5565b9150613919826138d8565b602082019050919050565b6000602082019050818103600083015261393d81613901565b9050919050565b7f4552433732313a20746f6b656e20616c7265616479206d696e74656400000000600082015250565b600061397a601c83612be5565b915061398582613944565b602082019050919050565b600060208201905081810360008301526139a98161396d565b9050919050565b7f45524337323155524953746f726167653a2055524920736574206f66206e6f6e60008201527f6578697374656e7420746f6b656e000000000000000000000000000000000000602082015250565b6000613a0c602e83612be5565b9150613a17826139b0565b604082019050919050565b60006020820190508181036000830152613a3b816139ff565b9050919050565b60008190508160005260206000209050919050565b60006020601f8301049050919050565b600082821b905092915050565b600060088302613aa47fffffffffffffffffffffffffffffffffffffffffffffffffffffffffffffffff82613a67565b613aae8683613a67565b95508019841693508086168417925050509392505050565b6000819050919050565b6000613aeb613ae6613ae184612c8c565b613ac6565b612c8c565b9050919050565b6000819050919050565b613b0583613ad0565b613b19613b1182613af2565b848454613a74565b825550505050565b600090565b613b2e613b21565b613b39818484613afc565b505050565b5b81811015613b5d57613b52600082613b26565b600181019050613b3f565b5050565b601f821115613ba257613b7381613a42565b613b7c84613a57565b81016020851015613b8b578190505b613b9f613b9785613a57565b830182613b3e565b50505b505050565b600082821c905092915050565b6000613bc560001984600802613ba7565b1980831691505092915050565b6000613bde8383613bb4565b9150826002028217905092915050565b613bf782612bda565b67ffffffffffffffff811115613c1057613c0f612fe3565b5b613c1a82546133a9565b613c25828285613b61565b600060209050601f831160018114613c585760008415613c46578287015190505b613c508582613bd2565b865550613cb8565b601f198416613c6686613a42565b60005b82811015613c8e57848901518255600182019150602085019450602081019050613c69565b86831015613cab5784890151613ca7601f891682613bb4565b8355505b6001600288020188555050505b505050505050565b6000608082019050613cd56000830187612d21565b613ce26020830186612d21565b613cef6040830185612f2f565b613cfc6060830184612bb0565b95945050505050565b7f436f756e7465723a2064656372656d656e74206f766572666c6f770000000000600082015250565b6000613d3b601b83612be5565b9150613d4682613d05565b602082019050919050565b60006020820190508181036000830152613d6a81613d2e565b9050919050565b7f4552433732313a20617070726f766520746f2063616c6c657200000000000000600082015250565b6000613da7601983612be5565b9150613db282613d71565b602082019050919050565b60006020820190508181036000830152613dd681613d9a565b9050919050565b7f4552433732313a207472616e7366657220746f206e6f6e20455243373231526560008201527f63656976657220696d706c656d656e7465720000000000000000000000000000602082015250565b6000613e39603283612be5565b9150613e4482613ddd565b604082019050919050565b60006020820190508181036000830152613e6881613e2c565b9050919050565b600081519050919050565b600082825260208201905092915050565b6000613e9682613e6f565b613ea08185613e7a565b9350613eb0818560208601612bf6565b613eb981612c20565b840191505092915050565b6000608082019050613ed96000830187612d21565b613ee66020830186612d21565b613ef36040830185612f2f565b8181036060830152613f058184613e8b565b905095945050505050565b600081519050613f1f81612b4b565b92915050565b600060208284031215613f3b57613f3a612b15565b5b6000613f4984828501613f10565b91505092915050565b7f4e487b7100000000000000000000000000000000000000000000000000000000600052601260045260246000fdfea26469706673582212209e9d419cf153b2211bedbf2c6fdaee9388f10cb16606c81438cb95d0f3f6945f64736f6c63430008180033",
  "linkReferences": {},
  "deployedLinkReferences": {}
}